:020000040800F2
:10000000F01B0020C9010008031600089B1200081D
:1000100001160008CF0200084D2300080000000070
:10002000000000000000000000000000AD1D0008FE
:10003000D102000800000000AB1D0008DD20000810
:10004000E3010008E3010008E3010008E301000800
:10005000E3010008E3010008E3010008E3010008F0
:10006000E3010008E3010008E3010008E3010008E0
:10007000E3010008E3010008E3010008E3010008D0
:10008000E3010008E3010008E3010008E3010008C0
:10009000E3010008E3010008E3010008E3010008B0
:1000A000E3010008E3010008E3010008E3010008A0
:1000B000E3010008E3010008E3010008E301000890
:1000C000E3010008E3010008E3010008E301000880
:1000D000E301000819230008E3010008E301000818
:1000E000E3010008E3010008E301000800F002F862
:1000F00000F05AF80AA090E8000C82448344AAF168
:100100000107DA4501D100F04FF8AFF2090EBAE865
:100110000F0013F0010F18BFFB1A43F0010318473B
:1001200064250000842500000A444FF0000C10F8FC
:10013000013B13F0070408BF10F8014B1D1108BF65
:1001400010F8015B641E05D010F8016B641E01F805
:10015000016BF9D113F0080F1EBF10F8014BAD1C55
:100160000C1B09D16D1E58BF01F801CBFAD505E073
:1001700014F8016B01F8016B6D1EF9D59142D6D3CD
:10018000704700000023002400250026103A28BFF5
:1001900078C1FBD8520728BF30C148BF0B607047F9
:1001A0001FB51FBD10B510BD00F058F81146FFF780
:1001B000F7FF02F0E5F800F076F803B4FFF7F2FF7E
:1001C00003BC00F07DF8000009488047094800475B
:1001D000FEE7FEE7FEE7FEE7FEE7FEE7FEE7FEE7F7
:1001E000FEE7FEE704480549054A064B7047000054
:1001F0003F210008ED000008F0150020F01B002052
:10020000F0170020F01700204FF0000200B5134651
:1002100094469646203922BFA0E80C50A0E80C5026
:10022000B1F12001BFF4F7AF090728BFA0E80C50D7
:1002300048BF0CC05DF804EB890028BF40F8042BD0
:1002400008BF704748BF20F8022B11F0804F18BF3D
:1002500000F8012B7047704770477047754600F0F3
:100260002BF8AE4605006946534620F00700854648
:1002700018B020B5FFF7B6FFBDE820404FF00006EC
:100280004FF000074FF000084FF0000B21F007017E
:10029000AC46ACE8C009ACE8C009ACE8C009ACE8C1
:1002A000C0098D46704710B50446AFF30080204664
:1002B000BDE81040FFF781BF00487047901500204F
:1002C00001491820ABBEFEE7260002007047FEE79A
:1002D000704710B590F821100022022905D00421A2
:1002E000816380F82020012010BD01680B6823F095
:1002F0000E030B6001680B6823F001030B6090F89C
:100300004030C46B012101FA03F3636080F82110CF
:1003100080F82020104610BD10B590F82110002460
:10032000022903D00421816301243DE001680A68A9
:1003300022F00E020A6001680A6822F001020A60D7
:100340001A4A0168914201D1012121E0174A143271
:10035000914201D110211BE0144A2832914201D16F
:10036000891515E0114A3C32914201D189140FE000
:100370000E4A5032914202D14FF4803108E00B4ACC
:100380006432914202D14FF4801101E04FF080714C
:10039000064A083A5160012180F82110002180F8B6
:1003A0002010416B01B18847204610BD0800024073
:1003B00070B5044600F004F90546601C02D00448FC
:1003C0000078044400F0FCF8401BA042FAD370BD52
:1003D0004C0000202DE9F84FDFF8B8910024A9F176
:1003E000040B23460F2709F1040AABF1040EC9E000
:1003F0000125A5402A40AA427DD1674ED1F804C00C
:10040000ACEB0608B44532D014DCBCF1030F3AD093
:1004100009DCBCF1000F2AD0BCF1010F1CD0BCF1EB
:10042000020F31D11DE0BCF1110F17D0BCF1120F3A
:100430002AD119E0B8F5881F19D006DCB8F5803F3D
:1004400015D0B8F5801F1FD111E0B8F5001F0ED0F0
:10045000B8F5041F18D10AE0CB6815E0CB681B1D66
:1004600012E0CB6808330FE0CB680C330CE08B68EC
:100470002BB1012B4FF0080303D0456104E00423A6
:1004800002E0056100E00023FF2A01D8064601E0F2
:1004900000F104064FEA840501D9A5F12005D6F83C
:1004A000008007FA05FC28EA0C0803FA05F548EA7B
:1004B0000508C6F800804D68ED0062D5374DAE697D
:1004C00046F00106AE61AD6924F0030605F00105B2
:1004D0000095334D06EB050CDCF80850A607360FE7
:1004E00007FA06F825EA0805DFF8B880404503D189
:1004F0004FF0000817E044E0DFF8AC80404502D13F
:100500004FF001080FE0DFF8A480404502D14FF022
:10051000020808E0DFF89880404502D14FF0030858
:1005200001E04FF0040808FA06F848EA0508CCF89C
:1005300008804D68D9F80060ED024D4601D516439C
:1005400000E096432E604D68DAF80060AD02554633
:1005500001D5164300E096432E604D68DBF800603D
:10056000AD035D4601D5164300E096432E604D680D
:10057000DEF80060ED03754601D5164300E09643B2
:100580002E60641C0D682A46E5407FF431AFBDE85B
:10059000F88F000008040140000011100010024014
:1005A0000000014000080140000C01400010014023
:1005B000001401408068084000D00120704700000E
:1005C00001488068704700004C00002070B50400AE
:1005D00025D094F83D00002520B984F83C502046F1
:1005E00000F050F9242084F83D002068016821F0D3
:1005F000010101602068016841F400410160206848
:10060000016821F40041016000F098FA4D4A6168E8
:10061000914201D84C4900E04C49884201D2012066
:1006200070BD4B492368B0FBF1F15E6826F03F06D0
:100630000E435E606368934206D94FF49673594344
:100640004FF47A73B1FBF3F12368491C1E6A26F05C
:100650003F06314319626168914210D84900401E3B
:10066000B0FBF1F2521CC2F30B02042A01D20420A7
:1006700022E0B0FBF1F0401CC0F30B001CE0A268CC
:10068000F2B301EBC10303EB0116431EB3FBF6F318
:100690005B1C43F480431B0549D092B301EBC102BC
:1006A00002EB0111401EB0FBF1F0401CC0F30B0047
:1006B00040F4804040F400402168CA694CF6FF7362
:1006C0009A431043C861D4E90710014320680268C7
:1006D00022F0C00211430160D4E903010143206804
:1006E000826848F2FF339A4311438160D4E90501DF
:1006F00008432168CA6822F0FF021043C86001E085
:100700000EE016E02068016841F0010101602564F7
:10071000202084F83D00256384F83E50002070BD01
:1007200001EB4106431EB3FBF6F35B1CB3E701206C
:10073000C2E701EB4101401EB0FBF1F0401CC0F3E9
:100740000B00B7E7A086010080841E0000093D0071
:1007500040420F002DE9FF4F83B09A46DDE9119723
:1007600093460446DDF84080FFF72AFF054694F8DB
:100770003D0020287FD119230122404920460095C1
:1007800000F024FE002876D194F83C00012872D0B5
:10079000012084F83C0020680168C90703D1016882
:1007A00041F0010101602068016821F400610160ED
:1007B000212084F83D00402084F83E000026266475
:1007C000C4F82480A4F82A90608D20852C48E0622B
:1007D000CDE9007553465A462046049900F076FD4F
:1007E00070B930E02A463946204600F095FE58B1EF
:1007F000206C042804D12068016841F40071016074
:10080000012007B0BDE8F08F606A216800780861B8
:10081000606A401C6062218D491E89B22185628D0B
:10082000521E628522685369DB435B070BD469B1B2
:1008300000781061606A401C6062208D401E208537
:10084000608D401E6085208D0028CBD12A46394618
:10085000204600F08FFD0028CAD154F83D0B0168F6
:1008600041F400710160202004F81E09E6776677E4
:100870000020C6E7FFE70220C3E7000002001000E7
:100880000000FFFF10B586B0002100910191029198
:10089000039100680F4988421AD10F4CA06940F0BB
:1008A0000800A061A069694600F008000490C0201B
:1008B000009012200190032003900848FFF78AFD62
:1008C000E06940F40010E061E06900F40010049079
:1008D00006B010BD0054004000100240000C014062
:1008E0000248816802781144816070474C00002002
:1008F000074810B5016841F010010160032000F0C5
:1009000075F80F2000F006F800F024F8002010BD64
:100910000020024070B50D4D04464FF47A712878DE
:10092000B1FBF0F00A490968B1FBF0F000F0DCFA25
:1009300048B9102C07D200222146501E00F036F88C
:1009400000206C6070BD012070BD00004C000020D4
:10095000580000200C4808B5816941F0010181610F
:10096000816901F001010091C16941F08051C161CB
:10097000C06900F0805000900448416821F0E061B7
:1009800041F00071416008BD0010024000000140CC
:10099000002809DB00F01F0201219140400980007E
:1009A00000F1E020C0F8001170470000F0B40E4BD9
:1009B0001B680C46C3F30223C3F10705042D00D9BD
:1009C0000425191D072901D2002300E0DB1E0126A2
:1009D00006FA05F1491E214099409E40761E1640B8
:1009E0003143F0BC01F0BBBC0CED00E0064900F067
:1009F000070208684FF6FF03184040EA0220034A46
:100A000010430860704700000CED00E00000FA059C
:100A10002DE9F0470F46050061D0434E306800F0E5
:100A20000700B84209D2306820F007003843306030
:100A3000306800F00700B84251D128683B4C81076C
:100A400012D5400703D5606840F4E0606060287804
:100A5000000703D5606840F4605060606068A96872
:100A600020F0F000084360602878C00728D068684C
:100A7000012810D02168022810D0890700292EDA19
:100A8000616821F0030101436160FFF799FD804631
:100A900041F288390DE021688903EFE78901EDE72C
:100AA000FFF78EFDA0EB0801494502D90320BDE800
:100AB000F0876068696800F00C00B0EB810FEFD13F
:100AC000306800F00700B8420BD9306820F007000A
:100AD00038433060306800F00700B84201D0012090
:100AE000E5E72878400705D56068E96820F4E0600C
:100AF000084360602878000706D56068296920F4FB
:100B0000605040EAC100606000F038F86168084A4F
:100B1000C1F30311515CC8400649086006480068EB
:100B2000FFF7F8FE0020C2E700200240001002405C
:100B30006A2600085800002050000020044805499B
:100B400000684968044AC1F30221515CC8407047FB
:100B500058000020001002407A2600080448054989
:100B600000684968044AC1F3C221515CC84070471B
:100B700058000020001002407A2600080E4A5168F2
:100B80000E4801F00C03042B11D0082B0FD10C4898
:100B9000C1F38343C903C05C0AD55168084AC1F355
:100BA0004041921E515C054A5043B0FBF1F0704742
:100BB00004494843704700000010024000127A00C8
:100BC0005A26000800093D002DE9F84F040070D0B6
:100BD0002078C04DC00749D06868C0F38100012863
:100BE00007D06868C0F38100022809D16868C00393
:100BF00006D52868800339D560680028E7D035E03D
:100C00006068B0F5803F0BD010B1B0F5A02F11D0C7
:100C1000286820F480302860286820F4802002E0D2
:100C2000286840F480302860606890B1FFF7C8FC05
:100C300006460AE0286840F480202860F0E700BFFC
:100C4000FFF7BEFC801B642873D828688003F7D5A3
:100C50000CE0FFF7B5FC064605E000BFFFF7B0FC6F
:100C6000801B6428F0D828688003F7D420789A4E37
:100C700080074FF001094FF0000839D5686810F07F
:100C80000C0F07D06868C0F38100022809D168689A
:100C9000C00306D42868800714D52069012808D12C
:100CA00010E02069B0B1C6F80090FFF789FC074654
:100CB00005E00AE1FFF784FCC01B0228C4D82868BD
:100CC0008007F7D52868616920F0F80040EAC10084
:100CD00028600DE0C6F80080FFF772FC074604E0CC
:100CE000FFF76EFCC01B022823D828688007F7D4C2
:100CF000207800072CD57948A169D9B1C0F80090B7
:100D0000FFF75EFC074604E0FFF75AFCC01B022811
:100D10000FD8686A8007F7D571484FF4FA51006818
:100D2000B0FBF1F0009000BF0098411E0091FAD294
:100D30000EE080E0C0F80080FFF742FC074604E0C8
:100D4000FFF73EFCC01B022875D8686A8007F7D4FD
:100D50002078400760D5E8690027C00008D4E8691A
:100D600040F08050E861E869012700F08050009071
:100D70005C480168C90513D40168834641F4807159
:100D80000160FFF71DFC824606E000BFFFF718FC7C
:100D9000A0EB0A0064284ED8DBF80000C005F5D5AA
:100DA000E06801280AD008B1052813D0286A20F08D
:100DB00001002862286A20F0040002E0286A40F05E
:100DC00001002862E06841F2883B98B1FFF7F8FB28
:100DD00082460BE0286A40F004002862EEE700BF7C
:100DE000FFF7EEFBA0EB0A0159455AD8286A8007A5
:100DF000F6D50CE0FFF7E4FB824605E0FFF7E0FBE9
:100E0000A0EB0A0159454CD8286A8007F6D41FB1D7
:100E1000E86920F08050E861E06988B36968C1F34F
:100E20008101022944D00228C6F8608004D0FFF76F
:100E3000C7FB044638E034E0FFF7C2FB074604E096
:100E4000FFF7BEFBC01B02282BD828688001F7D40F
:100E5000206AB0F5803F05D16868A16820F40030B1
:100E600008436860D4E908010843696821F47411F3
:100E700008436860C6F86090FFF7A2FB044606E0EE
:100E800025E000BFFFF79CFB001B022809D828685B
:100E90008001F7D51BE000BFFFF792FB001B022883
:100EA00002D90320BDE8F88F28688001F4D40EE051
:100EB0000128F7D06868226A00F48031914204D199
:100EC000616A00F47010884201D00120EAE7002036
:100ED000E8E7000000100240000042428004424265
:100EE000580000200070004010B5401EB0F1807F17
:100EF00001D3012010BD4FF0E02460610F21601785
:100F000001F02DFA0020A06107202061002010BD13
:100F100070477047F8B5016804460868CA684B69AD
:100F200010F00F0F4FF0000559D003F0010602F446
:100F30009077374365D0C10705D0D10503D5616CE3
:100F400041F001016164410705D5D90703D0616C07
:100F500041F002016164810705D5D90703D0616CB6
:100F600041F004016164010707D502F0200131431B
:100F700003D0616C41F008016164616C00293AD0D2
:100F8000800604D5900602D5204601F008F92068B5
:100F90004069616CC0F38010090700D460B320463B
:100FA00001F0D6F820684069400621D52068143049
:100FB00050E8001F21F0400140E80012002AF5D15E
:100FC000E06BA8B16D494163E06BFFF7A5F900281C
:100FD00011D0E06B416B01B0BDE8F04008478306DB
:100FE0000FD593060DD52046BDE8F84001F0D7B8DF
:100FF0002046FFF78EFFF8BD2046FFF78AFF6564A5
:10100000F8BD266B2023012E7CD1C6067AD5D606E4
:1010100078D508684868009048694FF00206400695
:1010200040D5E16B086840680004000CE8D0A28D50
:101030008242E5D9E085886920282DD020680C30CF
:1010400050E8001F21F4807140E80012002AF5D119
:101050002068143050E8001F21F0010140E8001220
:10106000002AF5D12068143050E8001F21F040011B
:1010700040E80012002AF5D184F842302563206848
:101080000C3050E8001F21F0100140E80012002A47
:10109000F5D1E06BFFF71DF96663A08DE18D401A75
:1010A00081B22AE0A08DE18D401A81B2E08D002846
:1010B000A6D00029A4D022680C3252E8000F20F4F8
:1010C000907042E80007002FF5D12068143050E8F6
:1010D000002F22F0010240E80027002FF5D184F80C
:1010E0004230256320680C3050E8002F22F01002B7
:1010F00040E80023002BF5D166632046FFF708FF88
:10110000F8BDFFE705062BD5150629D594F8410053
:101110002128F5D1A068B0F5805F01D12069B0B178
:10112000206A411C2162216800784860E08C401EE2
:101130000004000CE084E3D12068C16821F0800144
:10114000C1602068C16841F04001C160D8E7206AF1
:101150000088C0F308004860206A801C2062E5E730
:101160004006CDD55006CBD5CA68204622F04002B5
:10117000CA6084F8413000F08FF8C1E741210008CF
:1011800070B5040004D094F84100002510B106E0C9
:10119000012070BD84F84050204600F023F8242040
:1011A00084F841002068C16821F40051C1602046E4
:1011B00001F056F82068016921F49041016120682E
:1011C000416921F02A0141612068C16841F4005160
:1011D000C1606564202084F8410084F842006563A2
:1011E000002070BD30B585B00024009401940294B5
:1011F00003940068184988422CD11848816941F449
:1012000080418161816901F480410491816941F0EB
:10121000040181618069124D00F0040004904FF4D4
:101220000070009002200190032003906946284638
:10123000FFF7D0F82815CDE9000469462846029446
:10124000FFF7C8F8002211462520FFF7AFFB252045
:10125000FFF79EFB05B030BD003801400010024092
:1012600000080140704790F84130202B01D0022047
:10127000704779B172B101628284C28400214164F5
:10128000212180F841100068C16841F08001C160EF
:1012900000207047012070477047FEE701684A69E7
:1012A000D24352050FD46FF480624A61002140F8A6
:1012B000301F202242738173026942F004020261EE
:1012C0000173012070470020704700002DE9F843AA
:1012D000044600680D46DDE9089701689846164601
:1012E00041F4807101604B4600224FF0011120460D
:1012F000009700F06BF848B120680068C00502D57F
:101300004FF4007020640320BDE8F883216805F0E5
:10131000FE0008613B464A461549204600F09EF80B
:1013200088B920684169806900903A46494620465C
:1013300000F0F2F848B1206C042804D1206801685C
:1013400041F4007101600120DEE7F5B2B8F1010F50
:1013500009D02168300A08613A464946204600F023
:10136000DBF80028E7D1206805610020CCE7000009
:101370000200010070B516460D4604461EE02046E8
:10138000FFF78CFF08B1012070BD681C16D0FFF775
:1013900017F9801BA84200D885B920684069C0436E
:1013A00040070BD5002044F8300F20216173A07353
:1013B000216941F0200121612073E4E72068406940
:1013C000C0434007DBD4002070BD00002DE9F0478A
:1013D000984617460D460446C1F30746DDF82090AF
:1013E0002AE000BFB8F1FF3F26D0FFF7E9F8A0EBF5
:1013F0000901414502D8B8F1000F1DD12068012E26
:1014000016D0806925EA00000004000C12D00020EC
:10141000B84211D1002044F8300F20216173A0732D
:10142000216941F02001216120730120BDE8F0878E
:101430004069E7E70120EBE72068012E0AD08069C8
:1014400025EA00000004000C06D00020B842C9D0F4
:101450000020EBE74069F3E70120F7E72DE9F047CB
:10146000984616460D4604464FF000094FF0200AF4
:10147000C1F3074723E020684069C043400515D405
:101480002068016841F40071016021686FF4806098
:101490004861C4F8309084F83DA084F83E90216CF7
:1014A00041F00401216484F83C9021E0701C06D0D6
:1014B000FFF786F8A0EB0800B04203D816B1012F61
:1014C0001FD021E02068012F15D0806925EA000097
:1014D0000004000C18D000BF44F8309F84F80DA021
:1014E00084F80E90216941F02001216184F80C906C
:1014F0000120BDE8F087406925EA00000004000CE7
:10150000EAD12068406901E02068806925EA00008E
:101510000004000CAFD1ECE770B516460D4604464A
:101520001EE02046FFF7BAFE08B1012070BD681C1E
:1015300016D0FFF745F8801BA84200D885B920686F
:101540004069C04300060BD5002044F8300F20212D
:101550006173A073216941F0200121612073E4E7E8
:1015600020684069C0430006DBD4002070BD000045
:1015700003B583B00A23012204A98DE80E001346A7
:10158000024678210248FFF7E5F805B000BD0000EB
:10159000F410002030B585B000241648019403945F
:1015A000816941F020018161816901F0200104918C
:1015B000816941F004018161816901F004010491B4
:1015C000816941F0080181618069012500F008000E
:1015D000049005200090694602950748FEF7FAFE40
:1015E0004FF440608DE8310069460448FEF7F2FE92
:1015F00005B030BD0010024000080140000C014061
:10160000FEE7FEE770B5002404F1B000C0B200F0C0
:101610009EFE002000F09BFE102000F098FE0025AA
:10162000002000F098FE6D1CEDB2802DF8D3641CF4
:10163000E4B2082CE8D370BD2DE9F041002A42D075
:10164000002B40D0002801DA002404E0802801DBD0
:101650007F2400E00446A046002901DA002404E0CB
:10166000402901DB3F2400E00C460244501E4FF0AD
:10167000FF3501D52A4604E0802801DB7F2200E007
:10168000521EC81816B2411E04D4402901DB3F2562
:1016900000E00D462FB2B04515DCBC4213DC0CE077
:1016A000454606E000222146284600F027F96D1C39
:1016B0002DB2B542F6DD641C24B2BC42F0DDBDE8BB
:1016C000F04100F0F9B8BDE8F08100002DE9FC5FC1
:1016D00006460C988846802E6FD2B8F1400F6CD227
:1016E000144631191D46802902D9C6F18001CCB2B9
:1016F00008EB0501402902D9C8F14001CDB2002C08
:101700006FD0002D6DD0A84201D9294600E00146D6
:101710008B46A04200D920468146002010E008EB0D
:101720000A000027009006E0F0190122009900F05D
:10173000E5F87F1CFFB2A742F6D30AF10100C0B260
:1017400082465845EBD308EB05004FF0000A0190A4
:1017500013E001980027A0EB0A00009007E0009931
:10176000F0190122491E00F0C9F87F1CFFB2A74200
:10177000F5D30AF1010000F0FF0ADA45E9D30020B1
:101780000FE000BF08EB0A0B06E05946F0190122F2
:1017900000F0B4F87F1CFFB24F45F6D30AF1010008
:1017A000C0B28246A8424FF00007EBD306EB040A12
:1017B00011E0002408EB070609E012E0AAEB0400A0
:1017C00031460122401E00F099F8641CE4B24C45F9
:1017D000F4D37F1CFFB2AF42EBD3BDE8FC5F00F057
:1017E0006BB8BDE8FC9F10B5AE2000F0B0FD202026
:1017F00000F0ADFD102000F0AAFDB02000F0A7FD24
:10180000C82000F0A4FD002000F0A1FD102000F091
:101810009EFD402000F09BFD812000F098FDFF2000
:1018200000F095FDA12000F092FDA62000F08FFDB4
:10183000A82000F08CFD3F2000F089FDA42000F0DE
:1018400086FDD32000F083FD002000F080FDD52030
:1018500000F07DFDF02000F07AFDD92000F077FD4A
:10186000222000F074FDDA2000F071FD122000F05B
:101870006EFDDB2000F06BFD202000F068FD8D2068
:1018800000F065FD142000F062FDAF2000F05FFD68
:10189000BDE81040FFF7B6BE10B50AB104A200E0E3
:1018A00004A200F049F8BDE8104000F005B80000BF
:1018B000D8AD0000815E00002DE9F0410E4F0024FC
:1018C00004F1B000C0B200F042FD002000F03FFD86
:1018D000102000F03CFD002507EBC416705D00F001
:1018E0003AFD6D1CADB2802DF8D3641CA4B2082C57
:1018F000E6D3BDE8F08100009011002030B58028CB
:1019000017D2002915DB402913DACB1701EB5373EB
:1019100023F007040C1B0121064DA140DB1005EB51
:10192000C3131844002A027801D00A4300E08A4316
:10193000027030BD901100202DE9F74F82B00C46A7
:10194000804680287BD2002C79DB402C77DA00207F
:1019500049E000BFB8F1700F03DAC8F18000102829
:1019600005DA103424B24FF00008302C41DA202977
:1019700046D0049B002003EB0B02384B5278E2B3B5
:1019800000EB001513F815608E4259D103EB4505A5
:1019900000956D78954253D100270026009906EBFB
:1019A000071001EB000A08EB060000250FFA80F98A
:1019B0009AF80200E84000F00102601900EBC7004D
:1019C00001B24846FFF79AFF6D1C082DF0DB761C2C
:1019D000102EE3DB7F1C022FDFDB08F110000FFA73
:1019E00080F80BF102008346049810F80B100029D0
:1019F000B0D105B0BDE8F04F00E021E0FFF75CBFDB
:101A00000027002608EB060000250FFA80F9601970
:101A100000EBC70001B248460022FFF76FFF6D1CC4
:101A2000082DF4DB761C102EECDB7F1C022FE8DB8C
:101A300008F110000FFA80F80BF10100D3E70AE07B
:101A4000401C40289BD3202903D0022101EB0B002E
:101A5000C9E70121FAE705B0BDE8F08F740800205E
:101A60002DE9F04F91B01D00DDF8689016468A46CA
:101A700083461AD0142D00D91425182102A8FEF788
:101A8000C3FB0020804602AC8EB10A21B6FBF1F206
:101A900001FB1262B6FBF1F630322254401C002EDC
:101AA000F4D1002100EBD0720EE00125E5E73020F3
:101AB0008DF8080001200CE0431A2344665C13F8FB
:101AC000017D67541E70491CB1EB620FF4DB04F812
:101AD0000080A84201DD2E4600E0064602DDA0EBB4
:101AE000050701E04FF000074FF0180108A8FEF7C6
:101AF0008BFB002108A803E07A18A25C4254491C21
:101B0000B142F9DB202101E08155761CAE42FBDBBE
:101B100000F8058002464B465146584600F004F84E
:101B200011B0BDE8F08F00002DE9FF4F81B00C46E9
:101B30008046802845D2002C43DB402C41DA4FF010
:101B4000000B012B38D0022B3BD17AE020387DD41A
:101B5000B8F17D0F03DAC8F17F01062907DA0834EE
:101B600024B2C4F13F014FF0000808296EDB3A4966
:101B700000EB4000002501EB400908EB05000026C2
:101B80000FFA80F719F80500F04000F00102A019E3
:101B900001B23846FFF7B2FE761CF6B2082EF1D33A
:101BA0006D1CEDB2062DE8D308F106000FFA80F89F
:101BB0000BF1010000F0FF0B039810F80B00002858
:101BC000C4D143E0203841D4B8F17F0F03DAC8F123
:101BD0007F01082907DA103424B2C4F13F014FF025
:101BE0000008102932DB1D49002701EB001000908E
:101BF000002608EB0600002506EBC70A0FFA80F95D
:101C0000009810F80A00E84000F00102601900EBAB
:101C1000C70001B24846FFF771FE6D1CEDB2082DFA
:101C2000EED3761CF6B2082EE3D37F1CFFB2022F50
:101C3000DED308F108000FFA80F80BF1010000F084
:101C4000FF0B039810F80B000028BBD105B0BDE8CE
:101C5000F04FFFF731BE00005C000020840200203E
:101C60002DE9F0470C460546802871D2002C6FDB29
:101C7000402C6DDA03B9012364204243B2FBF3F038
:101C800080B2642800D96420C0EB00108000642179
:101C9000B0FBF1F01FFA80F905EB0900802803DDA5
:101CA000C5F180001FFA80F9002704EB0708002621
:101CB0000FFA88FAA819802807DAB8F1400F04DA79
:101CC000514600B20022FFF719FE761CB6B23C2E38
:101CD000F0D37F1CBFB20A2FE7D30026A8198028B3
:101CE00006DA402C04DA00B201222146FFF706FE94
:101CF000761CB6B23C2EF1D304F1090700260FFA88
:101D000087F8A819802806DA402F04DA00B20122E9
:101D10004146FFF7F3FD761CB6B23C2EF1D3002608
:101D2000802D07DAA019402804DA01B201222846E2
:101D3000FFF7E4FD761CB6B20A2EF1D305F13B00A5
:101D400087B2802F00D37F2700260FFA87F802E0A2
:101D500027E0802F07D2A019402804DA01B201221F
:101D60004046FFF7CBFD761CB6B20A2EF1D3002712
:101D700004EB070800260FFA88FA0CE0A81980285F
:101D800007DAB8F1400F04DA514600B20122FFF73A
:101D9000B5FD761CB6B24E45F0D37F1CBFB20A2FFC
:101DA000E6D3BDE8F047FFF787BD704770470000F6
:101DB0002DE9F04717468A46044610236422FFF7B0
:101DC0003BFC04F10E0904F11C0804F12A0604F19D
:101DD0003805102F71D2DFE807F070081E2F4D6014
:101DE000717D95A3AABBCCDDF5F386A251462046B2
:101DF000FFF7A2FD84A251464846FFF79DFD83A24E
:101E000051464046FFF798FD81A251463046FFF704
:101E100093FD80A273E080A251462046FFF78CFD1F
:101E20007EA251464846FFF787FD7DA251464046B7
:101E3000FFF782FD7BA22DE07BA251462046FFF7F3
:101E40007BFD7AA251464846FFF776FD78A25146BF
:101E50004046FFF771FD77A251463046FFF76CFD13
:101E600075A251462846FFF767FD74A2514604F15A
:101E70004600AFE072A251462046FFF75DFD71A219
:101E800051464846FFF758FD6FA251464046FFF7BE
:101E900053FD6EA2514630469CE06DA2514620464D
:101EA000FFF74AFD6BA2514604F11000FFF744FD15
:101EB00069A2514604F120008CE0A0E067A25146DF
:101EC0002046FFF739FD66A251464846FFF734FD2C
:101ED00064A222E064A251462046FFF72DFD63A2D2
:101EE00051464846FFF728FD61A251464046FFF79C
:101EF00023FD60A251463046FFF71EFD5EA251460B
:101F0000284667E050A251462046FFF715FD5BA228
:101F100051464846FFF710FD59A25146404659E048
:101F200058A251462046FFF707FD57A250E057A29E
:101F300051462046FFF700FD55A251464846FFF79F
:101F4000FBFC54A251464046FFF7F6FC52A2A1E723
:101F500036A251462046FFF7EFFC50A251464846B4
:101F6000FFF7EAFC4EA251464046FFF7E5FC4DA2C2
:101F700090E74DA251462046FFF7DEFC4BA25146AA
:101F80004846FFF7D9FC48A251464046FFF7D4FC2B
:101F900047A27FE747A251462046FFF7CDFC46A265
:101FA00051464846FFF7C8FC44A251464046FFF759
:101FB000C3FC43A251463046FFF7BEFC41A29EE758
:101FC0000CE0FFE740A251462046FFF7B5FC3FA2D8
:101FD00051464846BDE8F047FFF7AEBC3CA251462B
:101FE0002046FFF7A9FC3BA251464846FFF7A4FC58
:101FF00032A251464046FFF79FFC37A24AE7BDE8B0
:10200000F0870000B6AB0000CEF70000C4CF0000A0
:10201000B1B10000D6D00000B6AF0000CEEF000096
:10202000CAC00000BDE70000B8E70000D6BB000052
:10203000CAC70000B8F60000B4AB0000CBB5000082
:10204000C3F70000D4C20000CCEC0000D1C40000F3
:10205000C6F40000CABE0000C2BC0000C6F000000A
:10206000B7E70000C1CB0000C9BD0000E9AB00002C
:10207000CAF70000D6AE0000C1B50000B3D300001F
:10208000D7F90000CFFB0000B3EE0000D0C700007E
:10209000BAD30000CDF20000C0EF0000D2AA0000C9
:1020A000C6BD0000B7B20000D7D40000D3E90000DD
:1020B000C0D60000D7EE0000B3F50000B5C40000A4
:1020C000C3CE0000CFEB0000B2DC0000B2D90000AC
:1020D000D4F80000BEAD0000C4E30000FEF700BC71
:1020E00030B58FB028216846FEF78EF814210AA873
:1020F000FEF78AF801210804CDE9001000240294BB
:1021000002250491CDE907504FF4E010099068468C
:10211000FEF75AFD08B172B6FEE70F20CDE90A05B9
:102120004FF48060CDE90C4002210AA80E94FEF71E
:102130006FFC002801D072B6FEE70FB030BD7047CB
:1021400010B5406A0021C185C184FEF7E2FE10BDD2
:1021500001680C3151E8002F22F4907241E800230D
:10216000002BF5D10168143151E8002F22F0010253
:1021700041E80023002BF5D1016B012909D1016849
:102180000C3151E8002F22F0100241E80023002B0F
:10219000F5D1202180F8421000210163704708B575
:1021A00090F84210222901D0022008BD82684FF425
:1021B00080539A4201D1016921B1816A9A421BD0B0
:1021C0004AB10AE00268816A5268C2F308020A80D2
:1021D000816A891C08E0026972B10268526802F0E3
:1021E0007F020A70816A491C8162C18D491E0904FF
:1021F000090CC18503D01BE002685268F1E7016851
:10220000CA6822F02002CA600168CA6822F480729B
:10221000CA6001684A6922F001024A61202180F8FF
:10222000421000214163026B012A03D0FFF71AF824
:10223000002008BD016301680C3151E8002F22F035
:10224000100241E80023002BF5D101680A68D2068C
:1022500002D50A6849680091818DFEF759FEE7E7CB
:1022600070B5044600680169E26821F440511143E9
:1022700001612169A0680843616908432168CA684F
:1022800041F20C639A430243CA6020684169A26923
:1022900021F44071114341611E492068884202D1F6
:1022A000FEF75CFC01E0FEF749FC00EBC00101EB2E
:1022B0000012606864218000B2FBF0F3B3FBF1F31D
:1022C0006FF018067343B2FBF0F5B2FBF0F605EBC6
:1022D0008305322303EB0515B5FBF1F5B6FBF1F6EB
:1022E00005F0F00505EB0615B2FBF0F6B2FBF0F0D9
:1022F000B0FBF1F06FF01802504306EB800003EBE7
:102300000010B0FBF1F0216800F00F002844886055
:1023100070BD0000003801400148FEF7FBBD000021
:10232000481100200249082288710248FEF79BBF2D
:102330004300002048110020024908228871024809
:10234000FEF791BF3B00002048110020FEE7014648
:102350000020FFF70DB901464020FFF709B9090732
:10236000090E002804DB00F1E02080F8001470471B
:1023700000F00F0000F1E02080F8141D704700000D
:1023800008B5FEF7B5FAFFF7ABFEFFF703F9A9486A
:10239000A749002501604FF41651C0E901150C2131
:1023A000C560C0E904518561C561FEF7E9FE08B169
:1023B00072B6FEE79F48A049543801609F49C0E9C2
:1023C00001154FF48041C0E9035145618561C56144
:1023D0000562FEF7FBF808B172B6FEE7FFF703FAF5
:1023E000082297499348FEF73EFF4FF49670FDF799
:1023F000DFFF9349082228398E48FEF734FF642016
:10240000FDF7D6FF8E49082220398A48FEF72BFFB8
:102410006420FDF7CDFF8A49082208398548FEF778
:1024200022FFC820FDF7C4FF8549082218398148DA
:10243000FEF719FF6420FDF7BBFF81490822183918
:102440007C48FEF710FF6420FDF7B2FF7C490822AC
:1024500018397848FEF707FF6420FDF7A9FF784C8C
:1024600078A2333C0121A5701B20FFF765FA76A204
:1024700001210020FFF760FA74A201210D20FFF76F
:102480005BFA1E23227805212220FFF7E9FB4FF09B
:10249000020ACDF800A0554653462278012161205A
:1024A000FFF7DEFA0423642238210D200095FFF7A0
:1024B0000DF9002230213720FFF7EEF90122182113
:1024C0001020FFF775FCDFF88881E61CDFF88491A7
:1024D0004FF0010BE51D4FF400612878307047463E
:1024E0004046FEF767F828703178884222D010B154
:1024F00001280DD01BE0607808B1401E6070C0B2AA
:10250000FFF710FF627818211020FFF751FC0EE052
:10251000A07860B94A49082210394648FEF7A3FE60
:1025200084F802B0012230213720FFF7B5F90A20E4
:10253000FDF73EFF687870704FF480613846FEF713
:1025400039F868707178884223D010B101280ED014
:102550001CE060780F2801D2401C6070C0B2FFF709
:10256000E1FE627818211020FFF722FC0EE0A0782F
:1025700060B93349082210392E48FEF774FE84F8FA
:1025800002B0012230213720FFF786F90A20FDF73B
:102590000FFFA878B07004214F464846FEF70AF8AE
:1025A000A870B17888421AD0B0B1012814D120782F
:1025B00008B1401E2070C0B2FFF7BEFE1E23227875
:1025C00005212220FFF74CFBCDF800A00223227842
:1025D00001216120FFF744FA0A20FDF7E9FEE878BF
:1025E000F07001213846FDF7E5FFE870F178884288
:1025F0003FF471AFB8B1012815D120781E2801D25F
:10260000401C2070C0B2FFF797FE1E2322780521E0
:102610002220FFF725FBCDF800A00223227801211C
:102620006120FFF71DFA0A20FDF7C2FE53E7000004
:10263000003801404811002000540040A0860100ED
:1026400033000020A3BA0000D2F40000C1BF000094
:10265000000C0140000801400102020304050607C6
:1026600008090A0B0C0D0E0F1010000000000000EE
:10267000000001020304060708090000000001022F
:1026800003040000A426000800000020F41000004D
:1026900028010008B4320008F4100020FC0A0000F1
:1026A000840100081311015A0101257EFF06091B50
:1026B00002EF081A0F15290822062A1108320D29DF
:1026C0000812173A01205A0C1019202A090822036F
:1026D0001301EF32018210A3127A422F1A0702115E
:1026E0001B147F021116242A7F2A12166264081313
:1026F000232636495522501A054321341C22411CF9
:1027000041221C2A15083E08141A0806320823A084
:10271000602A0801211A600B1116201008040226F5
:102720003E5149453E1C427F4005156151494616C0
:102730002141454B31161814127F10162745454587
:1027400039163C4A4949301C01710962163649491B
:10275000493626064949291E4336362A56062B088D
:1027600014782A1401297E1314081602015109064F
:1027700016324959513E167C1211127C3A7F3C1692
:102780003E414141221A7F053A1C1212411E7F0927
:10279000090901181449497A1A7FA11A7F421A7F40
:1027A0004E1E2040413F0112295B1B7F4001111644
:1027B0007F020C027F3E7F0408107F483A3E3C1A9D
:1027C000060C1C51215E0C141929461A465412316C
:1027D0001601017F01011A3F35123F1E1F204020C4
:1027E0001F0C1A380C1663140814631607087008B7
:1027F0000719EF234543198B211B552A0219781A13
:10280000417D16040201020429712240290B111690
:102810002054545478167F484444382E3844444455
:10282000200613487F1A3818121816087E0901026C
:102830001D18A4A4A4E425080404781B447D3B1DB2
:102840004080847D5F341028441B417F121C7C042F
:10285000181E3A7C242948123816FC242424181AFD
:1028600018053AFC1812081A4854122016043F445E
:102870004020163C4040207C1A1CC01A1C0C14300E
:10288000403C2B44284F161CA0A0A07C3F4464541D
:102890004C441401011372F84333301C100C06032E
:1028A000912C40C0780319672A0403212D7088FCFD
:1028B0000829261820FF211E14F008F033E0184DD7
:1028C000211C031E11338870000C101E21232419B3
:1028D00027211010160E45E01804021C071820EAE4
:1028E0003D020418E0692C20180707174080F0808B
:1028F00040403F0202010F01022842F01D01010188
:102900001F04912B80B066B1191D2901913A30CE78
:10291000492C146018043C6018061D1EE0100808BD
:1029200010721F0F102020100FF05310F8362020C7
:102930003F20203C700808C21E3028242221441E5B
:102940003008888848082E1820202011CC3BC02051
:102950003227070424243F241AF8202308084B199F
:10296000212036E0108888184B0F11101E380808F7
:10297000C8382021523F1A702E29608F1C22212135
:10298000221C90111D31222211901961CAC0C26A05
:1029900080C659081C40201050170102040810205E
:1029A0004A4001114A04012119152A403219251BF8
:1029B0000402F21B7048D13AF0501A360F1EC03094
:1029C000C828E87028080718272423140B6F2A3812
:1029D0007E280D203C23020227382008F888889F93
:1029E0004B203FF01BC0303F1B08383019101978BE
:1029F0001B08F80F194039201B100F103E8888E87B
:102A0000081010AC23201810112A035E2940223828
:102A100029402C221E024019A41809F808203F2141
:102A2000010121252A0852298129424149112EC03C
:102A30008080807F0E2FF888C0281808501C01263F
:102A4000382F2940292F29801B20301012F81AF81E
:102A50001413203F190229204B30C0601A20741231
:102A60003F4BE010B06B0F10B029D01AF030198036
:102A7000220179203F18242438504FC04C88887098
:102A8000C0140C30204B7088C11738202121221C23
:102A90003A189F4A188239A049D0112A1F90121F54
:102AA000240878881BC838151C07380E60191A1AB4
:102AB000F8201114033C0714073C03481408186855
:102AC000808068180820302C03032C30200838C878
:102AD0002F5950298F29102F2038262120206811A6
:102AE00045FE020202257F4040401A0CE0611C01B5
:102AF00006380B191D42FE191D527F1A04120211CD
:102B0000045A80011930D91D3916211808192422B8
:102B100022223F20AB390F115F3F112020110E21DF
:102B2000311A0E104B2011104B88F8102A10B3598F
:102B3000401A1F3F2B22130F16F0888888181A207E
:102B4000D029D1497A21176B9494949360396019F4
:102B50000F4C203F21F354809898793059121AC0B5
:102B60002719D1193039311F203F24022D30212A55
:102B70000812893069D7294B2903190BC96079A03C
:102B800019BF2B201FDD390F9C80FFA1E0191229EE
:102B9000D03BA0FF0C3950194112208A01C01B33D1
:102BA00024012A190F3AE0413952290F392349608B
:102BB0003C103F202C29053F010E300806017029EA
:102BC0001038080F300C030C300F2C49A14E312E59
:102BD0000E31200C29621D818E70183059D1215779
:102BE00021302C22213055807C0202443F4040722B
:102BF000FF39083C02027C8F5440403F80080601A8
:102C000001020204043012C7B68080EE888888E88A
:102C10008F088878484E40C01A7FCA127F100881FA
:102C200040300F30418053C8EB7501E21CE0378023
:102C30004020100C0319B21A408C2ECABD101090FF
:102C40000118091010FF1010111610BE1F60203F50
:102C50001010102215102040F8180AD1A74030118A
:102C600096909091041698141350302A04013E4413
:102C7000847E06050A111BCFB0AA1D021222C206CD
:102C8000440202FE1C0818081A3D02024181BB588A
:102C900010D2F4404044445464454644645444448F
:102CA000EB4A490139EB4808C1BF202020BEAA01E8
:102CB0001ABE0C19AB1B80AF0C1AFF041AAFA91176
:102CC0002BA3BA13E1C30D0D380AB2DC0404F4548B
:102CD00054FF54041AF49A19FB4BFD55012BFD01C6
:102CE000222AD9E7200B90E02F29E909E9292FE0D2
:102CF000101042827F414425150D05FE0D15254516
:102D00004423D4F8600C7C445566447C44665544A6
:102D10007CB9AA1012BEAD2030AC6320188082426C
:102D200022121A264280180C2267221212124042E6
:102D300042427E04124013B5C4180BF80C0B08086D
:102D4000F840308F0807311B7F2101327F254380F7
:102D5000403F13C4E3100F8060F8074020180F08AD
:102D6000C808082818199E12FF17100C0340807F0E
:102D70001401061813B6AB180808884828180FE87D
:102D800042190131180E2011090541817F01010509
:102D9000091120441810CF04E4242464A4243F24FF
:102DA000A4642424E4EE12FF1E080909097F041A12
:102DB000484711380ACEF70202E22222FE22042CF2
:102DC000E20202CB280A484443404040434444CDF9
:102DD00013B1B11A2001290B1DFF402010662E20CF
:102DE00060201010101A3F2613407823D6D01BF015
:102DF00010012AFF0552F01B0F04012AFF05320FB4
:102E0000480AB6AF4044C444444440241923380C13
:102E1000103C131014B840300E0140EE2DCEEF40A0
:102E20003C1C200920108F7808F808F8280D0206AD
:102E300002FF0101044221184681221BCAC0861AE2
:102E4000FE89298D2992411D7F404047581A4788A5
:102E50002133BDE73DFE9292920441100808080418
:102E600084621E01100801FE020404080813B8E77A
:102E70001D02027A4A012D7A02027EED1E01010135
:102E80003D25011D3D41817F0C112BCAC7564A4982
:102E900001427F280A8141211D214181FF890113BF
:102EA00081818012B8F680804020100804C3040895
:102EB000102040808082FF13B4AB180D8060F807AB
:102EC000404848E85F4848489B3A011E3008020BDA
:102ED0001222D20A0627CBB5404042CC6008F11638
:102EE00010101814F3100D3F9048211907013F41AD
:102EF00041407013C3F71AFCD91AFCD11A220129D8
:102F0000CE180D0F0404048F40300F020242829A43
:102F10002BD4C2EE291D69213A801D2901392111C6
:102F20001BCCEC6629013AFE06198839BA130C034A
:102F30004B030CBA17D1C41060028C1FFE82929210
:102F400092FE0412821F04047E81601FBB2B487E08
:102F5000BB1133C6F4298A1B45460523447C3D40FA
:102F600020180712290119A05BCABE666AC266153D
:102F7000201008062B40808315020408302DC2BCA7
:102F800080806239011BFE8078180E404022241098
:102F900048807F0408182422322BC6F07214FF48A0
:102FA000484AC45511180B80601F207F4444404F8D
:102FB0005001135C401BB7E7ED2809021222C20240
:102FC000C23202ED2922196A150C030C30150F309C
:102FD00040F813C1CB49FD87E222120A0602498854
:102FE0005123C9BD42F042FF390A111B3F2001396C
:102FF0000529271012E9AB1010D0FF901044A494BB
:103000008CFF8C94A4441B04032E2D01405F4A01C5
:10301000135F401DCAF71090211524C404FC1690BC
:103020001010FF10140601FF1A2188221C2A436C7D
:1030300013D6AE2A100138081116109050301084A3
:10304000380920101028444241400111180FC1B521
:103050000484443404FC050604FC04144B1123408E
:1030600038100C3C4040424C40407004083010097D
:10307000B3D32424A4FE23222008126202FE0242BB
:10308000321A08671C010601012AFF051123D7F92E
:103090002808FC0484748405FE061A0444180A30C7
:1030A0004F41444444457F45061341401008CFFB3F
:1030B0001060020CC01BE22CE03328E61D04047CE7
:1030C00003FD2E0909094989EE2011B3EE10925231
:1030D00032FF51912018C03FC0100C140140301035
:1030E000087780848AB180E01411620433D0C71E4F
:1030F000BE2A2A2AEA04523E1C444249012A7F057C
:103100001965111BBAD366128C1F04E42424E4044D
:10311000CF1A0466237E012F0F04040F4080662C13
:10312000CDF204011AFC961C4444C40A111E8040CE
:1031300020180624454080403F23C0EF1BFE92012B
:103140004905313B40402E3A7F0613404033D6BB01
:103150004BFE02012921212E80402319010125095E
:103160001320C013D2AA4B02F242190433F2021800
:103170000D0282929A566322324A4642821013C648
:10318000BD1D02021262401E020242320212393F8B
:103190005C0101FF081143B7B21CFE0222306965D1
:1031A00034300C031201163F4040407833D7D470BE
:1031B0000AF8888C8A89888888F83AFFA6444444AB
:1031C000FF1008D3E910F01F10F02A9ECB33929E17
:1031D00010104122140C33844424140F142444840A
:1031E0008423C0D6300DE09C848484F48282838260
:1031F000808018082010080640807FB3240408301F
:10320000180BD7EE4040C05F5555D555011A5F7970
:1032100011180E20603F251515FF904729112D43E9
:10322000331009B3F5080889EA18881D0404FC0462
:1032300004193A1201200CFF018640201807408033
:10324000403F1CC3CE4073147F9424190619791A89
:1032500040CD280A888442452911110905D311134C
:10326000CFEB17088868FF48882DFE525252F02392
:103270004031180A3B4040445B424272038913D8F4
:10328000AD200FF0180C06F2F20202F2F2060C1852
:10329000F0100F0F1830604F4F40404F4F60301804
:1032A0000F3B815E228F02F2E2C2820222191F3C92
:0432B000474341222D
:04000005080000ED02
:00000001FF
